{
  "contractName": "Police",
  "abi": [
    {
      "inputs": [],
      "stateMutability": "nonpayable",
      "type": "constructor"
    },
    {
      "inputs": [],
      "name": "complaints",
      "outputs": [
        {
          "internalType": "string",
          "name": "",
          "type": "string"
        }
      ],
      "stateMutability": "view",
      "type": "function",
      "constant": true
    },
    {
      "inputs": [],
      "name": "investigation",
      "outputs": [
        {
          "internalType": "string",
          "name": "",
          "type": "string"
        }
      ],
      "stateMutability": "view",
      "type": "function",
      "constant": true
    },
    {
      "inputs": [],
      "name": "users",
      "outputs": [
        {
          "internalType": "string",
          "name": "",
          "type": "string"
        }
      ],
      "stateMutability": "view",
      "type": "function",
      "constant": true
    },
    {
      "inputs": [
        {
          "internalType": "string",
          "name": "us",
          "type": "string"
        }
      ],
      "name": "addUsers",
      "outputs": [],
      "stateMutability": "nonpayable",
      "type": "function"
    },
    {
      "inputs": [],
      "name": "getUsers",
      "outputs": [
        {
          "internalType": "string",
          "name": "",
          "type": "string"
        }
      ],
      "stateMutability": "view",
      "type": "function",
      "constant": true
    },
    {
      "inputs": [
        {
          "internalType": "string",
          "name": "c",
          "type": "string"
        }
      ],
      "name": "addComplaints",
      "outputs": [],
      "stateMutability": "nonpayable",
      "type": "function"
    },
    {
      "inputs": [],
      "name": "getComplaints",
      "outputs": [
        {
          "internalType": "string",
          "name": "",
          "type": "string"
        }
      ],
      "stateMutability": "view",
      "type": "function",
      "constant": true
    },
    {
      "inputs": [
        {
          "internalType": "string",
          "name": "inv",
          "type": "string"
        }
      ],
      "name": "addInvestigation",
      "outputs": [],
      "stateMutability": "nonpayable",
      "type": "function"
    },
    {
      "inputs": [],
      "name": "getInvestigation",
      "outputs": [
        {
          "internalType": "string",
          "name": "",
          "type": "string"
        }
      ],
      "stateMutability": "view",
      "type": "function",
      "constant": true
    }
  ],
  "bytecode": "0x608060405234801561001057600080fd5b506040518060200160405280600081525060019080519060200190610036929190610088565b50604051806020016040528060008152506000908051906020019061005c929190610088565b506040518060200160405280600081525060029080519060200190610082929190610088565b5061018c565b8280546100949061015a565b90600052602060002090601f0160209004810192826100b657600085556100fd565b82601f106100cf57805160ff19168380011785556100fd565b828001600101855582156100fd579182015b828111156100fc5782518255916020019190600101906100e1565b5b50905061010a919061010e565b5090565b5b8082111561012757600081600090555060010161010f565b5090565b7f4e487b7100000000000000000000000000000000000000000000000000000000600052602260045260246000fd5b6000600282049050600182168061017257607f821691505b602082108114156101865761018561012b565b5b50919050565b6108d48061019b6000396000f3fe608060405234801561001057600080fd5b50600436106100925760003560e01c8063582d2fb111610066578063582d2fb11461010b57806389e529d614610129578063aec09c1214610145578063de939b4314610163578063f20202751461018157610092565b8062ce8e3e146100975780632e542cc3146100b55780633ea4c99c146100d35780635723ad36146100ef575b600080fd5b61009f61019f565b6040516100ac9190610689565b60405180910390f35b6100bd610231565b6040516100ca9190610689565b60405180910390f35b6100ed60048036038101906100e891906107f4565b6102c3565b005b610109600480360381019061010491906107f4565b6102dd565b005b6101136102f7565b6040516101209190610689565b60405180910390f35b610143600480360381019061013e91906107f4565b610385565b005b61014d61039f565b60405161015a9190610689565b60405180910390f35b61016b610431565b6040516101789190610689565b60405180910390f35b6101896104bf565b6040516101969190610689565b60405180910390f35b6060600080546101ae9061086c565b80601f01602080910402602001604051908101604052809291908181526020018280546101da9061086c565b80156102275780601f106101fc57610100808354040283529160200191610227565b820191906000526020600020905b81548152906001019060200180831161020a57829003601f168201915b5050505050905090565b6060600280546102409061086c565b80601f016020809104026020016040519081016040528092919081815260200182805461026c9061086c565b80156102b95780601f1061028e576101008083540402835291602001916102b9565b820191906000526020600020905b81548152906001019060200180831161029c57829003601f168201915b5050505050905090565b80600290805190602001906102d992919061054d565b5050565b80600090805190602001906102f392919061054d565b5050565b600180546103049061086c565b80601f01602080910402602001604051908101604052809291908181526020018280546103309061086c565b801561037d5780601f106103525761010080835404028352916020019161037d565b820191906000526020600020905b81548152906001019060200180831161036057829003601f168201915b505050505081565b806001908051906020019061039b92919061054d565b5050565b6060600180546103ae9061086c565b80601f01602080910402602001604051908101604052809291908181526020018280546103da9061086c565b80156104275780601f106103fc57610100808354040283529160200191610427565b820191906000526020600020905b81548152906001019060200180831161040a57829003601f168201915b5050505050905090565b6002805461043e9061086c565b80601f016020809104026020016040519081016040528092919081815260200182805461046a9061086c565b80156104b75780601f1061048c576101008083540402835291602001916104b7565b820191906000526020600020905b81548152906001019060200180831161049a57829003601f168201915b505050505081565b600080546104cc9061086c565b80601f01602080910402602001604051908101604052809291908181526020018280546104f89061086c565b80156105455780601f1061051a57610100808354040283529160200191610545565b820191906000526020600020905b81548152906001019060200180831161052857829003601f168201915b505050505081565b8280546105599061086c565b90600052602060002090601f01602090048101928261057b57600085556105c2565b82601f1061059457805160ff19168380011785556105c2565b828001600101855582156105c2579182015b828111156105c15782518255916020019190600101906105a6565b5b5090506105cf91906105d3565b5090565b5b808211156105ec5760008160009055506001016105d4565b5090565b600081519050919050565b600082825260208201905092915050565b60005b8381101561062a57808201518184015260208101905061060f565b83811115610639576000848401525b50505050565b6000601f19601f8301169050919050565b600061065b826105f0565b61066581856105fb565b935061067581856020860161060c565b61067e8161063f565b840191505092915050565b600060208201905081810360008301526106a38184610650565b905092915050565b6000604051905090565b600080fd5b600080fd5b600080fd5b600080fd5b7f4e487b7100000000000000000000000000000000000000000000000000000000600052604160045260246000fd5b6107018261063f565b810181811067ffffffffffffffff821117156107205761071f6106c9565b5b80604052505050565b60006107336106ab565b905061073f82826106f8565b919050565b600067ffffffffffffffff82111561075f5761075e6106c9565b5b6107688261063f565b9050602081019050919050565b82818337600083830152505050565b600061079761079284610744565b610729565b9050828152602081018484840111156107b3576107b26106c4565b5b6107be848285610775565b509392505050565b600082601f8301126107db576107da6106bf565b5b81356107eb848260208601610784565b91505092915050565b60006020828403121561080a576108096106b5565b5b600082013567ffffffffffffffff811115610828576108276106ba565b5b610834848285016107c6565b91505092915050565b7f4e487b7100000000000000000000000000000000000000000000000000000000600052602260045260246000fd5b6000600282049050600182168061088457607f821691505b602082108114156108985761089761083d565b5b5091905056fea26469706673582212203a65da2142ad91d5044299f977836edca61c49c06dbaf3633b17827fcb747f6c64736f6c634300080b0033",
  "immutableReferences": {},
  "source": "pragma solidity >= 0.8.11 <= 0.8.11;\r\n\r\ncontract Police {\r\n    string public users;\r\n    string public complaints;\r\n    string public investigation;\r\n      \r\n    //save users details\t\r\n    function addUsers(string memory us) public {\r\n       users = us;\t\r\n    }\r\n   //get user details\r\n    function getUsers() public view returns (string memory) {\r\n        return users;\r\n    }\r\n    //set complaints\r\n    function addComplaints(string memory c) public {\r\n       complaints = c;\t\r\n    }\r\n    //get complaints\r\n    function getComplaints() public view returns (string memory) {\r\n        return complaints;\r\n    }\r\n\r\n    //add investigation\r\n    function addInvestigation(string memory inv) public {\r\n       investigation = inv;\t\r\n    }\r\n    //get investigation\r\n    function getInvestigation() public view returns (string memory) {\r\n        return investigation;\r\n    }\r\n\r\n    constructor() public {\r\n        complaints = \"\";\r\n\tusers=\"\";\r\n\tinvestigation=\"\";\r\n    }\r\n}",
  "sourcePath": "C:\\acc\\manoj\\November21\\hello-eth\\node_modules\\.bin\\contracts\\Police.sol",
  "compiler": {
    "name": "solc",
    "version": "0.8.11+commit.d7f03943.Emscripten.clang"
  },
  "schemaVersion": "3.4.4",
  "updatedAt": "2023-04-29T15:55:56.889Z",
  "networkType": "ethereum",
  "devdoc": {
    "kind": "dev",
    "methods": {},
    "version": 1
  },
  "userdoc": {
    "kind": "user",
    "methods": {},
    "version": 1
  }
}